:100000000C94B2020C94DA020C94DA020C943210C2
:100010000C9432100C9432100C94DA020C94DA0224
:100020000C94DA020C94DA020C94DA020C94DA02E0
:100030000C94DA020C94AA100C94DA020C94DA02F2
:100040000C94E80F0C94DA020C94B60F0C94900FF9
:100050000C94DA020C94DA020C94DA020C94DA02B0
:100060000C94DA020C94DA02804020100804020199
:1000700000000000240027002A0000000008000201
:1000800001000003040700000000000000000496C7
:100090000A1020400303080A0A0A0A030606080990
:1000A000050604070A0A0A0A0A0A0A0A0A0A0305CE
:1000B000080608080A0A0A0A0A0A0A0A0A050A0AAF
:1000C0000A0B0A0A0A0A0A0A090A0A0D0B0B0A0590
:1000D0000705090A000000000000FFFFFFCFCFCF97
:1000E0000F0F0F00000F0F0F0000000000000000B6
:1000F000707EFEFE7070FEFEFE700E7F7F7F0E0E25
:100100007F7F7F0EF8FCFE8EFFFF8E8C8C181831DF
:100110007373FFFF73733F1F1E3F333F9EE0781ED4
:100120000703C0E0781E0779FCCCFC783E7FC3CF84
:100130007E3E000000007EFFC1C1FF7E183C66428B
:100140000F0F0F000000F0F81C0603010F1F3860AE
:10015000C0800103061CF8F080C060381F0FC36622
:100160003CFFFF3C66C300000000000000008080F0
:1001700080F0F0F08080800303031F1F1F03030340
:1001800000000000008040783838808080808080C7
:1001900003030303030380C0C080010303010000C5
:1001A000C0F8FF1F03C0F8FF1F030000FCFE03039D
:1001B00003030303FEFC3F7FC0C0C0C0C0C07F3F3D
:1001C00000080C0EFFFF0000000000C0C0C0FFFFD1
:1001D000C0C0C0008383838383838383FFFFFFFFCB
:1001E000C1C1C1C1C1C1C1C10303838383838383EF
:1001F000FFFFC0C0C1C1C1C1C1C1FFFF80C0F07855
:100200003E3FFFFF00001F1F18181818FFFF1818A7
:10021000FFFF8383838383838383C1C1C1C1C1C142
:10022000C1C1FFFFFEFF83838383838387067FFF34
:10023000C1C1C1C1C1C1FF7F0703030303C3F3FFF2
:100240003F0F0000F0FCFF0F030000007EFF8383E0
:1002500083838383FF7E7EFFC1C1C1C1C1C1FF7E95
:10026000FEFF030303030303FFFE61E3C3C3C3C332
:10027000C3C3FF7F7070700E0E0E00007070702090
:10028000101E0E0E80C0E070381C0C0403070E1CFC
:10029000383020007070707070700E0E0E0E0E0EE2
:1002A000040C1C3870E0C0802030381C0E0603019E
:1002B0000E0F87C3E7FF7F1E0000CFCFCF000000E7
:1002C000FCFE0703E3F33337FEFC3F7FE0C0C7CFFC
:1002D000CCCCCF07F0F8FC1E0F0F1EFCF8F0FFFF90
:1002E000FF1C1C1C1CFFFFFF07FFFFFFC7C7EFFF22
:1002F000FE3CE0FFFFFFE1E1E3FF7F3EFCFEFF0F7E
:100300000707070F0E0C3F7FFFF0E0E0E0F07030D2
:1003100007FFFFFF07070FFFFEFCE0FFFFFFE0E026
:10032000F0FF7F3F07FFFFFF878787870707E0FF13
:10033000FFFFE3E3E3E3E0E0FFFFFF8787878787D3
:100340000707FFFFFF03030303030000FCFEFF0F8B
:1003500007070F0F0E0C3F7FFFF0E0E0E7F77F3F4E
:10036000FFFFFF80808080FFFFFFFFFFFF0303038D
:1003700003FFFFFF03FFFFFF03C0FFFFFFC00000FD
:1003800000000303FFFFFF033878F8F0E0F0FF7F81
:100390003F00FFFFFFC0E070381C0E07FFFFFF03A8
:1003A000070E1C3870E0FFFFFF0000000000000097
:1003B000FFFFFFE0E0E0E0E0E0E0FFFFFF3C78F07F
:1003C000783CFFFFFFFFFFFF0000000000FFFFFF82
:1003D000FFFFFF7CF08000FFFFFFFFFFFF00010F2A
:1003E0003EFFFFFFFCFEFF0F07070FFFFEFC3F7FF6
:1003F000FFF0E0E0F0FF7F3FFFFFFF878787CFFF41
:10040000FEFCFFFFFF03030303030100FCFEFF07E5
:10041000070707FFFEFC3F7FFFE0E0FC78FFFF9F40
:10042000FFFFFF878787CFFFFE7CFFFFFF070F1FC0
:100430003F7BF0E07CFEFFCF8787878F0E0C30710B
:10044000F3E3E3E3F7FF7F3E070707FFFFFF07073D
:1004500007000000FFFFFF000000FFFFFF0000009B
:1004600000FFFFFF3F7FFFF0E0E0F0FF7F3FFFFF77
:10047000FF00000000FFFFFF010F3FFEF0F0FE3F16
:100480000F01FFFFFF00000000000000FFFFFFFF63
:10049000FFFF7C3C1E0F1E3C78FFFFFF071F7F7C89
:1004A000E080E07C7F1F07E0F8FE3E0701073EFE8C
:1004B000F8E03F7FFFE0C080C0E0FF7F3F0000002A
:1004C00001FFFFFF0100000007070787C7E7F77F6D
:1004D0003F1FFCFEFFE7E3E1E0E0E0E0FFFFFF0796
:1004E00007FFFFFFE0E0031FFFF8C000000000036C
:1004F0001FFFF8C00707FFFFFFE0E0FFFFFF3038F6
:100500001C0E070E1C383000000000000000000028
:1005100000000000000000000000C0C0C0C0C0C05B
:10052000C0C0C0C000000000230026002900000059
:100530000000250028002B00040404040404040423
:10054000020202020202030303030303010204087E
:10055000102040800102040810200102040810202D
:10056000F910D61411241FBECFEFD8E0DEBFCDBFE7
:1005700022E0A2E6B1E001C01D92A23BB207E1F782
:1005800011E0A0E0B1E0E8EDFFE202C005900D92BD
:10059000A236B107D9F712E0C1EBD2E004C021972F
:1005A000FE010E94DB15C03BD107C9F70E9408126B
:1005B0000C94DF170C9400000895AF92BF92CF9275
:1005C000DF92EF92FF920F931F93CF93DF936C0113
:1005D0007B018B01040F151FEB015E01AE18BF08F4
:1005E000C017D10759F06991D601ED91FC910190A6
:1005F000F081E02DC6010995892B79F7C501DF91BE
:10060000CF911F910F91FF90EF90DF90CF90BF900F
:10061000AF900895FC01538D448D252F30E0842F39
:1006200090E0821B930B541710F0CF96089501971A
:100630000895FC01918D828D981761F0A28DAE0F07
:10064000BF2FB11D5D968C91928D9F5F9F73928F8E
:1006500090E008958FEF9FEF08952FB7F894809161
:10066000BA019091BB01A091BC01B091BD012FBF17
:100670008093C6019093C701A093C801B093C901AC
:100680008EEB91E00E94190397FF26C02FB7F894D4
:100690008091BA019091BB01A091BC01B091BD01C4
:1006A0002FBF4091C6015091C7016091C801709160
:1006B000C901841B950BA60BB70B4091C201509149
:1006C000C3016091C4017091C50184179507A60705
:1006D000B707B0F28FEF9FEF0895FC01918D828DE7
:1006E000981731F0828DE80FF11D858D90E0089507
:1006F0008FEF9FEF0895FC01918D228D892F90E05F
:10070000805C9F4F821B91098F73992708958EEB10
:1007100091E00E947B0321E0892B09F420E0822FE5
:100720000895FC01A48DA80FB92FB11DA35ABF4F86
:100730002C91848D90E001968F739927848FA689E0
:10074000B7892C93A089B1898C91837080648C9334
:10075000938D848D981306C00288F389E02D8081E3
:100760008F7D80830895EF92FF920F931F93CF9315
:10077000DF93EC0181E0888F9B8D8C8D98131AC0DC
:10078000E889F989808185FF15C09FB7F894EE89C3
:10079000FF896083E889F989808183708064808320
:1007A0009FBF81E090E0DF91CF911F910F91FF906B
:1007B000EF900895F62E0B8D10E00F5F1F4F0F7313
:1007C0001127E02E8C8D8E110CC00FB607FCFACFCE
:1007D000E889F989808185FFF5CFCE010E949103D8
:1007E000F1CFEB8DEC0FFD2FF11DE35AFF4FF0829F
:1007F0009FB7F8940B8FEA89FB8980818062CFCF05
:10080000CF93DF93EC01888D8823B9F0AA89BB8947
:10081000E889F9898C9185FD03C0808186FD0DC032
:100820000FB607FCF7CF8C9185FFF2CF808185FF53
:10083000EDCFCE010E949103E9CFDF91CF910895D2
:10084000833081F028F4813099F08230A9F0089546
:100850008730A9F08830C9F08430B1F480918000ED
:100860008F7D03C0809180008F77809380000895F2
:1008700084B58F7784BD089584B58F7DFBCF80913B
:10088000B0008F778093B00008958091B0008F7D85
:10089000F9CF1F93CF93DF93282F30E0F901E6586B
:1008A000FF4F8491F901E45BFA4FD491F901E85CC0
:1008B000FA4FC491CC23A9F0162F81110E94200475
:1008C000EC2FF0E0EE0FFF1FE25DFA4FA591B4911F
:1008D0008FB7F894EC91111108C0D095DE23DC930A
:1008E0008FBFDF91CF911F910895DE2BF8CFCF936B
:1008F000DF9390E0FC01E45BFA4F2491885C9A4F0F
:10090000FC0184918823D1F090E0880F991FFC01AD
:10091000E059FF4FA591B491FC01E25DFA4FC591FA
:10092000D49161110EC09FB7F8948C91E22FE0959D
:100930008E238C932881E223E8839FBFDF91CF91A0
:1009400008958FB7F894EC91E22BEC938FBFF6CF1C
:100950003FB7F8948091AC019091AD01A091AE01A8
:10096000B091AF0126B5A89B05C02F3F19F00196A5
:10097000A11DB11D3FBFBA2FA92F982F8827BC01F9
:10098000CD01620F711D811D911D42E0660F771F21
:10099000881F991F4A95D1F708958F929F92AF9221
:1009A000BF92CF92DF92EF92FF924B015C010E94C7
:1009B000A8046B017C010E94A8046C197D098E09B2
:1009C0009F09683E734081059105A8F321E0821AD2
:1009D0009108A108B10888EEC80E83E0D81EE11C7A
:1009E000F11C81149104A104B10429F7FF90EF9048
:1009F000DF90CF90BF90AF909F908F9008952091FF
:100A0000B6013091B7012817390771F49091B401FC
:100A10008091B501981741F0E091B401F0E0E559FB
:100A2000FE4F808190E008958FEF9FEF0895089525
:100A3000EF92FF920F931F93CF93DF93DC015C96AD
:100A4000ED90FC905D97E114F10479F481E090E081
:100A500013969C938E93129790E080E0DF91CF9154
:100A60001F910F91FF90EF9008955196ED91FC9199
:100A7000529750968C915097982F90950FB75E96FD
:100A80002C915E97122F127021FD6095F8942081B1
:100A9000112319F1282B2083E7012197F1F728E092
:100AA000462F50E0308160FF1AC0382B3083E701B9
:100AB0002197F1F7BA0175956795215089F71123B0
:100AC00081F08081892380830FBF5C968D919C91FA
:100AD0000197F1F781E090E0C1CF2923DCCF3923E2
:100AE000E5CF9081892BEFCF2091B6013091B701EE
:100AF0002817390771F48091B5012091B40190E075
:100B0000805C9F4F821B910960E470E00E94B315E6
:100B1000089590E080E008952091B6013091B701EA
:100B200028173907B9F49091B4018091B50198174D
:100B300089F0E091B401F0E0E559FE4F8081209109
:100B4000B40130E02F5F3F4F2F7333272093B40160
:100B500090E008958FEF9FEF0895DC019B012F71C6
:100B6000332712968C911297829586958770FA0199
:100B700094E0F695E7959A95E1F7F5E07695679517
:100B8000FA95E1F78E9F600D112480E2689FB00115
:100B900011241696EC91169717968C91E89FF00108
:100BA00011244F705527E49FC001E59F900DF49FDD
:100BB000900D1124620F731FA3E076956795AA9597
:100BC000E1F7860F971F08950F931F93CF93DF933D
:100BD0008C01EB010E94AD05FE01E770FF27E8598B
:100BE000FF4FE491E801AC81BD81A80FB91FCC9102
:100BF000EC2381E009F080E0DF91CF911F910F910C
:100C00000895EF92FF920F931F93CF93DF93DC0130
:100C10001296EC911297E6171706E1F0D8F01396AA
:100C2000EC91E4171506B1F0A8F08901EB017C0105
:100C30000E94AD05FE01E770FF27E859FF4F649160
:100C40000330110521F168F401151105C1F00130DF
:100C50001105E9F0DF91CF911F910F91FF90EF9077
:100C6000089504301105F1F00530110599F7F701E9
:100C7000A481B581A80FB91FEC91E62711C0F70137
:100C8000A481B581A80FB91FEC91E62B09C0F7012B
:100C9000A481B581A80FB91FCC91E62FE095EC2374
:100CA000EC93D8CFF701A481B581A80FB91FEC91BF
:100CB000E095EBCF2F923F924F925F926F927F928F
:100CC0008F929F92AF92BF92CF92DF92EF92FF925C
:100CD0000F931F93CF93DF93CDB7DEB728970FB64F
:100CE000F894DEBF0FBECDBF3C016B015A013E83BD
:100CF0002D831A8309831701C801841B950B442493
:100D00005524481A590A2FEF3FEF97FD02C021E002
:100D100030E03C832B8397FF2C01440C551C5886F4
:100D20004F8257FE04C0C201019698878F832F819E
:100D300038853595279531952195310938872F8349
:100D40008D819E818C159D0528F176019101A5016B
:100D5000B601C3010E9401068F8098848501298114
:100D60003A812017310791F097FC05C03FEFE31A55
:100D7000F30A841895088B819C81080F191F910133
:100D8000A801B701C3010E940106E9CF9FEFC91A6C
:100D9000D90AD6CF28960FB6F894DEBF0FBECDBFC6
:100DA000DF91CF911F910F91FF90EF90DF90CF9047
:100DB000BF90AF909F908F907F906F905F904F907B
:100DC0003F902F900895EF92FF920F931F93FC0195
:100DD000108A1786128A118A138A41855285678183
:100DE0007085E680F12C05851685040F151F238577
:100DF0003485260F371F848195810E945A061F91E2
:100E00000F91FF90EF90089590E080E008958F9209
:100E10009F92AF92BF92CF92DF92EF92FF920F9389
:100E20001F93CF93DF935A01FC01228930E0F9012F
:100E3000E85CFA4FE491F0E0EE0FFF1FE25DFA4F3D
:100E4000A591B491245B3A4FF901249130E0FC0163
:100E5000838990E0FC01E85CFA4FE491F0E0EE0F4A
:100E6000FF1FE25DFA4FC591D491FC01E45BFA4F9C
:100E7000E4918E2E912C10E000E0C40180959095B5
:100E8000A901409550950A151B050CF0B7C0FB0150
:100E9000E680F7806701FFEFCF1ADF0AFB01D782F8
:100EA000C682F701D080F8E0CF2EE880F980D7FE27
:100EB00099C0E828F928F982E882ED90FC90119712
:100EC000E22AF32A1196FC92EE92DD0CED90FC9052
:100ED0001197E422F5221196FC92EE92CA94C11069
:100EE000E4CFFB01E480F5806701FFEFCF1ADF0A52
:100EF000FB01D582C482F701D080E8E0CE2EE880E5
:100F0000F980D7FE72C0E828F928F982E882ED90CE
:100F1000FC901197E22AF32A1196FC92EE92DD0CD6
:100F2000ED90FC901197E422F5221196FC92EE923E
:100F3000CA94C110E4CFFB01E280F3806701FFEFA8
:100F4000CF1ADF0AFB01D382C282F701D080F8E01A
:100F5000CF2EE880F980D7FE4BC0E828F928F98227
:100F6000E882ED90FC901197E22AF32A1196FC9208
:100F7000EE92DD0CED90FC901197E422F522119693
:100F8000FC92EE92CA94C110E4CFFB01E080F180A4
:100F90006701FFEFCF1ADF0AFB01D182C082F701A0
:100FA000D080E8E0CE2EE880F980D7FE24C0E82883
:100FB000F928F982E882ED90FC901197E22AF32A51
:100FC0001196FC92EE92DD0CED90FC901197E422CC
:100FD000F5221196FC92EE92CA94C110E4CF0F5FF5
:100FE0001F4F51CFE822F92266CFE822F9228DCF98
:100FF000E822F922B4CFE822F922DBCFDF91CF91AA
:101000001F910F91FF90EF90DF90CF90BF90AF9026
:101010009F908F900895EF92FF920F931F93CF931D
:10102000DF93CDB7DEB728970FB6F894DEBF0FBEBB
:10103000CDBF8C01DC0150962C9127FF7CC0F801BC
:1010400086814781849FA0011124848195816285D6
:10105000649F9001659F300D1124280F391F3A833A
:101060002983228530E02C5F3F4F249FB001259FCC
:10107000700D349F700D1124680F791F7C836B8372
:10108000228530E0285F3F4F249FB001259F700DDF
:10109000349F700D1124680F791F7E836D83228524
:1010A00030E0245F3F4F249FB001259F700D349F97
:1010B000700D1124860F971F98878F830190F08100
:1010C000E02D0480F581E02DBE016F5F7F4FC801E8
:1010D000099560E0D8011B968C910E94490461E05B
:1010E000F80186850E94490460E0D8011E968C9123
:1010F0000E944904F8016285617084850E94490458
:10110000D8011A966C911A9762701D968C910E9464
:101110004904F801828590E00196837099278287BF
:10112000F188FFEFFF1234C061E0D8011B968C916B
:101130000E94490420C0022E000C330BF901E6582E
:10114000FF4F8491F901E45BFA4FE490F901E85C08
:10115000FA4FF490FF2079F081110E942004EF2DC6
:10116000F0E0EE0FFF1FEC5DFA4FA591B491EC910A
:10117000EE2209F064CF28960FB6F894DEBF0FBEBA
:10118000CDBFDF91CF911F910F91FF90EF90089508
:10119000F801138561E0812F0E947704F11002C0ED
:1011A00060E00FC0E12FF0E0E658FF4FE491E3303C
:1011B00031F148F4E130C9F0E230E1F061E0F7FEEE
:1011C000EFCF812FB5CFE73031F1E83061F1E43076
:1011D000A9F7809180008062809380008F2D90E03D
:1011E00090938B0080938A00C6CF84B5806884BDBD
:1011F000F7BCC1CF84B5806284BDF8BCBCCF809100
:1012000080008068809380008F2D90E0909389000B
:1012100080938800B0CF8091B00080688093B00048
:10122000F092B300A8CF8091B00080628093B000AC
:10123000F092B400A0CFCF93DF939EE7909362012A
:101240009FEF9093630196E0909364018093650112
:101250001092660170936701609368018FEE80932E
:101260006901C2E6D1E069918FE892E00E94180519
:1012700081E0CA36D807B9F7DF91CF910895CF93AF
:10128000DF93EC0160E08B850E94490461E08B856F
:101290000E94770460E08C850E94490461E08C859F
:1012A0000E94770460E08D850E94490461E08D858D
:1012B0000E94770460E08E850E94490461E08E857B
:1012C0000E9477044E818B81489FA00111246FEF0B
:1012D00070E08C819D810E94D117E881F9810680A0
:1012E000F781E02DCE01DF91CF910994CF93DF9369
:1012F000EC0160E08A890E94490461E08A890E94C9
:10130000770460E08B890E94490461E08B890E9428
:101310007704CE01DF91CF910C943F09CF93DF93F7
:10132000EC0188819981009711F00E947D16198245
:1013300018821D821C821B821A82DF91CF91089530
:10134000FC01848195810C947D16CF93DF93EC0191
:101350000E94A009CE01DF91CF910C947D1621E36C
:1013600031E0FC01318320830C94A009CF93DF93FB
:10137000EC010E94AF09CE01DF91CF910C947D1654
:101380000F931F93CF93DF93EC018881998100978E
:1013900059F02A813B812617370730F081E0DF9131
:1013A000CF911F910F9108958B016F5F7F4F0E9426
:1013B0000617009759F0998388831B830A832C8131
:1013C0003D81232B59F7FC011082E8CF80E0E7CF65
:1013D0000E94C317EF92FF920F931F93CF93DF9357
:1013E0006115710541F480E0DF91CF911F910F915C
:1013F000FF90EF90089541155105B1F07B01EC018C
:101400000C811D81040F151FB8010E94C00988239B
:1014100051F3288139818C819D81B701820F931FFF
:101420000E94D8171D830C8381E0DECF0F931F939A
:10143000CF93DF938C01EB01FC01808191810097B8
:10144000E1F06881798161157105A9F042815381CC
:101450002C813D814217530770F00E94D8178C8170
:101460009D81F801958384831D821C82DF91CF9139
:101470001F910F9108950E947D1688819981F8012E
:10148000918380838A819B81938382838C819D81D8
:1014900095838483198218821B821A82E5CFEF928A
:1014A000FF920F931F93CF93DF93EC017B018A018F
:1014B000BA010E94C00981110BC0CE010E948E09A1
:1014C000CE01DF91CF911F910F91FF90EF90089582
:1014D0001D830C83B701888199810E94D817F0CFB2
:1014E00022E08338920761F0FC016081718161150F
:1014F000710549F04481558183E892E00E944F0ACA
:1015000083E892E0089583E892E00E948E09F8CF84
:10151000FC01118210821382128215821482FB0157
:1015200001900020E9F73197AF01461B570B0C944F
:101530004F0A0F931F93CF93DF93EC018BE091E061
:10154000998388836A834B831986188670E0695F64
:101550007F4F83E0759567958A95E1F76E8350E03C
:10156000CA010F9624E0969587952A95E1F78F8317
:10157000469F8001479F100D569F100D1124C801F2
:101580000E94E1159D838C83A8016FEF70E0DF91CD
:10159000CF911F910F910C94D1172F923F924F92A0
:1015A0005F926F927F928F929F92AF92BF92CF92F3
:1015B000DF92EF92FF920F931F93CF93DF93CDB7FC
:1015C000DEB762970FB6F894DEBF0FBECDBF5C01E9
:1015D0003B012A013E872D87480117014C2D6E2DB6
:1015E000CE0101960E94990A83010E2913290770E2
:1015F00011270115110509F040C093012E0D3F1D63
:101600003A8B298BC016D10609F472C07201E00E24
:10161000F11EA70169897A89C5010E94AD059C87E1
:101620008B87A80170E060E0CE0101960E94AD05B5
:10163000988B8F87A701B301C5010E94AD054F8527
:101640005889481B590B9A01280F391F6B857C85D7
:101650008617970778F4D5011496ED91FC91E80F61
:10166000F91F6D817E81260F371F6081F90160832C
:101670000196E9CF0F5F1F4FC5CF5C864B86F12CDB
:10168000E12CCE14DF04A1F110E000E020163106B9
:1016900029F1B301600F711FD50112968C91129739
:1016A00086171706C1F0B8F013968C91EB85FC8570
:1016B0008E171F0681F078F0AF01C5010E94E40586
:1016C000282F30E0A701B801CE0101960E94010643
:1016D0000F5F1F4FDBCF30E020E0F4CFFFEFEF1ABA
:1016E000FF0A2B853C852F5F3F4F3C872B87C9CF57
:1016F00031E0C31AD1088601040D151D9101215056
:101700003109260D371DF12CE12CA201B301C501D1
:101710000E945A068D859E8587709927892B09F02E
:1017200052C08B81982F977009F04DC02C81280DE5
:10173000392D311DD50113966C90712C2615370566
:1017400008F43901ED85FE85E80FF11DD5011296EB
:10175000CC90D12CEC15FD0508F46F0184017801C3
:10176000E818F9080615170508F05BC0A801B601CE
:10177000C5010E94AD052C01A70170E060E0CE011B
:1017800001960E94AD057C01A8016D857E85C5018D
:101790000E94AD05E81AF90A9701280F391F841530
:1017A000950570F4AD81BE81A20FB31FF5012481B0
:1017B0003581F901E80FF91F2C9120830196ECCFB8
:1017C0000F5F1F4FCCCF84016801C818D9088C81E6
:1017D0008C151D0431F128F1F12CE12C8B818E1533
:1017E0001F04E1F0D8F08C8130E020E08C151D045E
:1017F00049F040F0A601B701CE0101960E94E40530
:10180000282F30E06D857E856E0D7F1DA801C501F6
:101810000E940106FFEFEF1AFF0AE0CF0F5F1F4F94
:10182000D3CFCE0101960E94A00962960FB6F8941C
:10183000DEBF0FBECDBFDF91CF911F910F91FF9003
:10184000EF90DF90CF90BF90AF909F908F907F9060
:101850006F905F904F903F902F9008952F923F92FE
:101860004F925F926F927F928F929F92AF92BF92B0
:10187000CF92DF92EF92FF920F931F93CF93DF935C
:10188000CDB7DEB76F970FB6F894DEBF0FBECDBFF2
:101890001C01B62EDC011496ED91FC9160857185DA
:1018A00046E050E0CE010D960E94291568886394A9
:1018B000F1018385948504811581892B51F4D80128
:1018C00012968C9190E027813085821B930B948730
:1018D0008387F10185859685892B51F4D80113966C
:1018E0008C9190E021853285821B930B96878587AA
:1018F000F8016085718546E050E0CE0101960E94B6
:101900002915F0E2BF123BC0EB81EF5F712C230180
:10191000440C551C2E2F30E03A8F298FD1011F9691
:101920006D917C9150971616170654F41B962D91C5
:101930003C91898D9A8D860F971F821793072CF4FF
:10194000F1018389882309F4D3C0D1011D96CD907C
:10195000DC901E97C414D504ACF151968D919C91E6
:101960005297860D971D52969C938E935197509641
:101970001C921E921F97D10153961C92CFCF8D813E
:10198000B816F0F02E8190E0280F392F311DB216D5
:101990001306B4F429813A81232B09F4B5CFE6E08C
:1019A000F0E0E81BF90BCF018B0D911DB7FC9A9568
:1019B000D8011896ED91FC91E80FF91FE491A5CF9D
:1019C000E0E0A3CFF1018389882321F0C1010E94C7
:1019D000E306D1CF1B96ED91FC911C97CF01861B9E
:1019E000970B0197898C9A8C881A990A14968D9175
:1019F0009C91159719964D915C911A9717966D9138
:101A00007C91940197FE04C02227332728193909B5
:101A10002E173F073CF1D1011696EC90F12CC40E25
:101A2000D51E8601015011099F01260F371F215035
:101A300031090E945A06F101878590898819990910
:101A4000908B878723853485D1011F968D919C913A
:101A5000509797FF41C0820F931F50969C938E938F
:101A60001F97F2CFDC0112960C91129710E0181418
:101A70001904E4F4D401A60FB71FBE8BAD8BA017D9
:101A8000B107C8F6DC0113962C912417150699F2BC
:101A900090F26017710778F67F01E818F9088A015B
:101AA0009B016D897E890E94CD0AC5CF60177107A1
:101AB00010F613962C912417150609F008F4BBCFE5
:101AC0009B01281939092017310708F0B4CF7F018D
:101AD000E80CF91C8A01E7CFF10187859089281766
:101AE00039070CF048CF821B930B908B8787F4CF7C
:101AF000BAE0BB1222C0E680848195810780F08520
:101B0000E02DD10151962D913C91529719964D910E
:101B10005C911A97420F531F21E053962C935397D1
:101B2000F12C8301040F151F1B962D913C912E0F54
:101B30003F1F6E0F7F1F0E945A06F101848095801F
:101B4000168181E018278189928961847284680EE8
:101B5000791EC784D08887819085C80ED91ED4018C
:101B600018964D905C90199712968C9112978C153F
:101B70001D0471F16CF113968C918615170441F1D7
:101B80003CF146E050E0B201CE0107960E942915D3
:101B9000F12CE12C113019F0A6E0EA2EF12CB0E284
:101BA000BB123EC0F4016085718546E050E0CE0175
:101BB00001960E9429152B810A85060D172D111DEE
:101BC0002C0D3D2D311DA301B601C4010E945A0602
:101BD000D1011F968D919C915097E98DFA8D8E0FB2
:101BE0009F1F50969C938E931F9781E090E06F9675
:101BF0000FB6F894DEBF0FBECDBFDF91CF911F911E
:101C00000F91FF90EF90DF90CF90BF90AF909F909B
:101C10008F907F906F905F904F903F902F9008959E
:101C20002B2D0B2C000C330BEB858E2F90E02817FF
:101C3000390774F26C8570E0860F971F28173907F3
:101C40003CF64A8550E09A01295F3F4FF3E0359515
:101C50002795FA95E1F7BE1A8B2DBB0C990BEF81F6
:101C6000F885EF2B09F088C0F985FB8B289FD00100
:101C7000299FB00D389FB00D1124FA9F5001FB9F92
:101C8000B00C112466E0A60EB11CAB898A2F90E03F
:101C9000919581959109C816D9060CF499CF519563
:101CA00041955109641675060CF492CF2B8F76017D
:101CB000F9013197FF8FEE8F8E2D8C19FB898F17CD
:101CC00008F086CF2B8D21502C8B3C893E3F08F0AD
:101CD00075C0F5016B89639FE00DF11D1124E40DC2
:101CE000F51DE491832F90E09C0143E0220F331F08
:101CF0004A95E1F7388F2F8BAE8DBF8D8A179B07E2
:101D000031F4BB8D0A850850110BB23010F40F89E5
:101D1000188D1E8A1D8A2E2F30E03D8F2C8F8D89C5
:101D2000AF89B88D0A171B07C4F09A859017110662
:101D3000A4F0A301400F511FEC8DFD8D02C0F5955D
:101D4000E7958A95E2F721E030E0E0FD02C030E05F
:101D500020E0B701C4010E9401062D893E892F5F52
:101D60003F4F3E8B2D8B0F5F1F4F28303105B9F64B
:101D70003C8931503C8BA9CF10E0B0E0A0E0E12FCE
:101D8000F0E0E817F90744F43696E40DF51DE49108
:101D9000AE0FB11D1F5FF3CF2A9F50012B9FB00CD8
:101DA0003A9FB00C11246A5F7F4FA60EB71EFC014C
:101DB0003696E40DF51D84918B8B67CF6FEFE61A95
:101DC000F60A8FEFA81AB80A77CFFF920F931F93E6
:101DD000CF93DF93CDB7DEB728970FB6F894DEBF69
:101DE0000FBECDBFFF24F3948EEB91E00E947B03E6
:101DF000892B09F468C06AE070E080E090E00E94FE
:101E0000CD048EEB91E00E9419038435910561F7B2
:101E100050E040E061E671E089E892E00E944F0AFC
:101E20001A8219821C821B821E821D8250E040E0B1
:101E300061E671E0CE0101960E944F0A0E942D03D7
:101E400097FD1BC08F8318860D811E810F5F1F4F6A
:101E5000B801CE0101960E94C009882379F3298137
:101E60003A818D819E81BE01695F7F4F820F931FF2
:101E70000E94D8171E830D83E1CFBE016F5F7F4F95
:101E800089E892E00E94160A89819A810E947D1653
:101E90008091890290918A02009789F00E94021530
:101EA0002091B8013091B9012617370709F49CCF6A
:101EB0007093B9016093B801F092000195CF60E092
:101EC00070E0CB01EDCF28960FB6F894DEBF0FBEC1
:101ED000CDBFDF91CF911F910F91FF9008950E9488
:101EE000870381110C94E50E0895CF93DF93C8EC1E
:101EF000D0E080910001811110C08EEB91E00E9432
:101F00007B03892B11F00E94E50E65E070E080E014
:101F100090E00E94CD04219761F7DF91CF91089561
:101F20001F920F920FB60F9211242F933F934F934E
:101F30005F936F937F938F939F93AF93BF93EF9331
:101F4000FF938EEB91E00E949103FF91EF91BF917F
:101F5000AF919F918F917F916F915F914F913F9141
:101F60002F910F900FBE0F901F9018951F920F92F8
:101F70000FB60F9211242F938F939F93EF93FF939C
:101F8000E091CE01F091CF018081E091D401F091F8
:101F9000D50182FD1BC090818091D7018F5F8F7327
:101FA0002091D801821741F0E091D701F0E0E2548E
:101FB000FE4F958F8093D701FF91EF919F918F9165
:101FC0002F910F900FBE0F901F9018958081F4CF26
:101FD0001F920F920FB60F9211242F933F938F935E
:101FE0009F93AF93BF938091BA019091BB01A09151
:101FF000BC01B091BD013091AB0123E0230F2D371F
:1020000058F50196A11DB11D2093AB018093BA0133
:102010009093BB01A093BC01B093BD018091AC0132
:102020009091AD01A091AE01B091AF010196A11DBB
:10203000B11D8093AC019093AD01A093AE01B0931C
:10204000AF01BF91AF919F918F913F912F910F90D1
:102050000FBE0F901F90189526E8230F0296A11D22
:10206000B11DD2CF1F920F920FB60F9211242F9352
:102070003F934F935F936F937F938F939F93AF9310
:10208000BF93EF93FF93E091B601F091B7013097C2
:1020900049F0A685B7858585968D91FF14C09C91E2
:1020A0008923A1F4FF91EF91BF91AF919F918F91FF
:1020B0007F916F915F914F913F912F910F900FBE44
:1020C0000F901F9018959C91892361F7A389B4897B
:1020D0009C918589809589238C938689978901971E
:1020E000F1F7608D718DA685B785558538E020E0C4
:1020F000CB010197F1F7822F90E095958795282FD6
:102100004C91452309F02068315091F7868D81FD6F
:1021100020958091B50190E001968F7399273091B9
:10212000B401381799F0A091B501B0E0A559BE4FA0
:102130002C938093B501828D938D0197F1F7A3893C
:10214000B4898C919589892B8C93ACCF868D8160D5
:10215000868FF1CF1F920F920FB60F9211242F93FB
:102160003F934F935F936F937F938F939F93AF931F
:10217000BF93CF93DF93EF93FF9380916A0190E039
:1021800001968170992780936A01892BF9F4D0E038
:10219000C0E08091B2019091B301C817D907B4F49F
:1021A000E091B001F091B101CE01880F991FE80FC5
:1021B000F91F80819181009739F0DC01ED91FC914C
:1021C0000680F781E02D09952196E3CFFF91EF91ED
:1021D000DF91CF91BF91AF919F918F917F916F913F
:1021E0005F914F913F912F910F900FBE0F901F90D5
:1021F00018951092C1011092C00188EE93E0A0E002
:10220000B0E08093C2019093C301A093C401B09346
:10221000C50123E131E03093BF012093BE0125ECDD
:1022200030E03093CB012093CA0124EC30E03093AE
:10223000CD012093CC0120EC30E03093CF012093EE
:10224000CE0121EC30E03093D1012093D00122EC7B
:1022500030E03093D3012093D20126EC30E030936C
:10226000D5012093D4011092D7011092D801109279
:10227000D9011092DA011092920210929102809389
:10228000930290939402A0939502B09396028DE4EA
:1022900091E09093900280938F021092A602109288
:1022A000A5021092A8021092A7021092AA02109200
:1022B000A9021092AC021092AB026091AD026E7F47
:1022C0006D7F6093AD026695617081E068278AE05A
:1022D0000E94490461E08AE00E947704E6E5F5E0A7
:1022E000E491E0939F02E2E4F5E0E491F0E0EE0F88
:1022F000FF1FE25DFA4F859194919093A102809324
:10230000A00260E083E00E9477048091AD0281FD2D
:1023100004C061E083E00E94490483E080939B0253
:10232000EFE4F5E0E491E0939C02EBE3F5E0E49167
:10233000F0E0EE0FFF1FEC5DFA4F859194919093C2
:102340009E0280939D0261E671E089E892E00E941E
:10235000880A6BE571E083E892E00E94880A40E118
:1023600060E28FE692E00E94990A1092790289E079
:1023700080937A0286E080937B0287E080937C02E0
:1023800088E080937D0281E080937E028FEF8093CE
:102390007F02809380028FE391E09093700280939C
:1023A0006F028DE0809381028BE080938202109215
:1023B0005E0210925D0285E291E090935C02809350
:1023C0005B028FE692E09093600280935F0210922E
:1023D00061021092630210926202109265021092E2
:1023E000640282E290E0909367028093660280E14B
:1023F00090E0909369028093680210926B021092B1
:102400006A0210926D0210926C0210926E02089590
:10241000CF93DF93CDB7DEB768970FB6F894DEBFE2
:102420000FBECDBF789484B5826084BD84B58160D1
:1024300084BD85B5826085BD85B5816085BD80918F
:102440006E00816080936E00109281008091810007
:1024500082608093810080918100816080938100FF
:10246000809180008160809380008091B1008460C1
:102470008093B1008091B00081608093B000809122
:102480007A00846080937A0080917A0082608093E1
:102490007A0080917A00816080937A0080917A003E
:1024A000806880937A001092C100E091CE01F09193
:1024B000CF0182E08083E091CA01F091CB011082CC
:1024C000E091CC01F091CD018FEC80831092D60188
:1024D000E091D201F091D30186E08083E091D001B8
:1024E000F091D101808180618083E091D001F091F1
:1024F000D101808188608083E091D001F091D10189
:10250000808180688083E091D001F091D101808149
:102510008F7D80838AEF90E0A0E0B0E08093C201DD
:102520009093C301A093C401B093C50161E08CE016
:102530000E94770461E082E00E94770461E082E01B
:102540000E94490461E084E00E94770460E084E036
:102550000E9449048FEF809380028EE890E0909370
:102560007802809377028FE692E00E947609DFB6C8
:10257000F8948091B0019091B101FC0150E040E0ED
:102580002FEF3FEF6091B2017091B30146175707EB
:1025900064F461917191A2E06F367A0741F1672B83
:1025A00009F49A014F5F5F4FEDCF2F3F320709F0DB
:1025B000B6C12091B2013091B3012F5F3F4F3093EC
:1025C000B3012093B2016091B2017091B301660F23
:1025D000771F0E940617009709F097C18091B201FA
:1025E0009091B30101979093B3018093B20181E080
:1025F00080936F00DFBE1092AA021092A90210927F
:10260000A8021092A7021092A6021092A5028DE9CC
:1026100091E09093AC028093AB0290919B02963133
:1026200008F047C02DEB30E03093A6022093A502BE
:102630002BE931E03093A8022093A7022CE231E08D
:102640003093AA022093A9022091680084E0983078
:1026500048F031E09E3008F430E081E001C0880F9E
:102660003A95EAF7822B809368002DE630E09830A7
:1026700050F02BE630E09E3030F02CE630E0963122
:1026800010F030E020E03093A3022093A202292F23
:1026900030E0983008F051C181E001C0880F9A9570
:1026A000EAF78093A4028091AB029091AC0201976B
:1026B000F1F78091A9029091AA02892B49F1E0914A
:1026C000B601F091B70122E0EF38F20709F1309737
:1026D00039F0A389B4899C918589809589238C934D
:1026E0008091AD028E7F8093AD021092B501109261
:1026F000B4018FE892E09093B7018093B601E09126
:10270000A202F091A30280819091A402892B808380
:1027100064EF71E080E090E00E94CD0462E070E040
:1027200089E00E941B0968EC70E080E090E00E9464
:10273000CD041092B9011092B801CE0101966C013E
:1027400094E6892E912C2AE0A22EB12C80910001D2
:10275000882309F4CCC0109200018091B8019091B7
:10276000B9011C8A1B8A1E8A1D8A188E1F8A4AE09C
:10277000B6010E943215F60101900020E9F7319769
:10278000AF014C195D09B601CE0143960E944F0A74
:10279000BE016D5E7F4F83E892E00E94160A8B892E
:1027A0009C890E947D164091870250918802609119
:1027B0008302709184028EEB91E00E94DD0242E080
:1027C00050E06FE571E08EEB91E00E94DD02009138
:1027D000B8011091B90104361105DCF56DE571E021
:1027E000C6010E94880A4091870250918802609138
:1027F000830270918402C6010E94EA09811103C01C
:10280000C6010E948E09C6010E94700A89819A81C0
:102810000E947D160A301105E4F46DE571E0C601F1
:102820000E94880A40918702509188026091830239
:1028300070918402C6010E94EA09811103C0C60199
:102840000E948E09C6010E94700A89819A810E94A5
:102850007D166BE071EE82E20E941B0961E08CE064
:102860000E944904EE24E394F12C00E110E020E200
:1028700030E050E040E070E060E08FE692E00E94DF
:102880005A060E94750F4091750280917202489F0E
:10289000A00111246FEF70E0809173029091740297
:1028A0000E94D1170E94750F60E08CE00E944904DD
:1028B0008BE592E00E94E3064091870250918802E6
:1028C00060918302709184028BE592E00E94DD02A8
:1028D0008091B8019091B9018A309105DCF5BC0175
:1028E0006F5F7E4182E20E941B090E94750F64E6C1
:1028F00070E080E090E00E94CD040E94870388236E
:1029000009F424CF0E94E50E21CF2091B20130912D
:10291000B301215031099093B1018093B001220F8E
:10292000331F8091B0019091B101280F391F8FE6BC
:1029300092E0F901918380835ACE9E3040F4285072
:10294000310981E001C0880F2A95EAF7AACE2E50FE
:102950003109F7CF8436910594F4B5010E94B3157F
:102960006F5F7E4182E20E941B090E94750F809179
:10297000B8019091B901B5010E94B315B0CF883E5E
:10298000A3E09A070CF0B3CFB4010E94B3156F5FB8
:102990007E4182E20E941B090E94750F8091B8015E
:1029A0009091B901B4010E94B315D7CF8FE692E0A0
:1029B0000E94AF0980918302909184020E947D164B
:1029C0008091890290918A020E947D168DE491E0A7
:1029D0009093900280938F028091B6019091B701FD
:1029E0008F58924071F4E091A202F091A30290817D
:1029F0008091A4028095892380831092B701109260
:102A0000B60108951F93FC0199278827BC01E8941B
:102A100011911032E9F3193010F01E30C8F31B3257
:102A200051F01D3249F4689406C00E943D15610FB3
:102A3000711D811D911D119110531A30B0F33EF498
:102A400090958095709561957F4F8F4F9F4F1F9107
:102A50000895FB01DC0102C005900D9241505040E9
:102A6000D8F70895BB274A3031F4992322F4BDE208
:102A7000909581959F4F0C945315592F482F372FC0
:102A8000262F660F771F881F991F660F771F881FD5
:102A9000991F620F731F841F951F660F771F881F72
:102AA000991F0895BB27FB015527AA27880F991F57
:102AB000AA1FA41710F0A41B83955051B9F7A05D6D
:102AC000AA3308F0A95DA193009779F7B111B193EA
:102AD0001192CB010C946C15DC01FC01672F7191F4
:102AE0007723E1F7329704C07C916D9370836291F4
:102AF000AE17BF07C8F308952F923F924F925F928F
:102B00006F927F928F929F92AF92BF92CF92DF92FD
:102B1000EF92FF920F931F93CF93DF93CDB7DEB762
:102B2000CA1BDB0B0FB6F894DEBF0FBECDBF0994F6
:102B30002A88398848885F846E847D848C849B844D
:102B4000AA84B984C884DF80EE80FD800C811B815B
:102B5000AA81B981CE0FD11D0FB6F894DEBF0FBE8A
:102B6000CDBFED01089597FB072E16F4009407D012
:102B700077FD09D00E94C71507FC05D03EF490955B
:102B800081959F4F0895709561957F4F0895AA1B79
:102B9000BB1B51E107C0AA1FBB1FA617B70710F048
:102BA000A61BB70B881F991F5A95A9F7809590957A
:102BB000BC01CD010895EE0FFF1F0590F491E02DAB
:102BC00009940F931F93CF93DF938230910510F4F4
:102BD00082E090E0E091B002F091B10230E020E0BC
:102BE000B0E0A0E0309799F42115310509F44AC00E
:102BF000281B390B24303105D8F58A819B8161155A
:102C0000710589F1FB0193838283FE0111C040812C
:102C100051810281138148175907E0F0481759077D
:102C200099F4109761F012960C93129713961C93D7
:102C30003296CF01DF91CF911F910F9108950093AC
:102C4000B0021093B102F4CF2115310551F04217B3
:102C5000530738F0A901DB019A01BD01DF01F8013A
:102C6000C1CFEF01F9CF9093B1028093B002CDCFE5
:102C7000FE01E20FF31F81939193225031093983B2
:102C80002883D7CF2091AE023091AF02232B41F49D
:102C900020910301309104013093AF022093AE02E2
:102CA00020910101309102012115310541F42DB728
:102CB0003EB74091050150910601241B350BE09170
:102CC000AE02F091AF02E217F307A0F42E1B3F0B08
:102CD0002817390778F0AC014E5F5F4F241735078E
:102CE00048F04E0F5F1F5093AF024093AE028193A6
:102CF00091939FCFF0E0E0E09CCFCF93DF930097DC
:102D0000E9F0FC01329713821282A091B002B091D7
:102D1000B102ED0130E020E01097A1F42081318173
:102D2000820F931F2091AE023091AF02281739070E
:102D300009F061C0F093AF02E093AE02DF91CF9152
:102D40000895EA01CE17DF07E8F54A815B819E010D
:102D500041155105B1F7E901FB83EA834991599186
:102D6000C40FD51FEC17FD0761F480819181029695
:102D7000840F951FE90199838883828193819B83C6
:102D80008A83F0E0E0E012968D919C911397009772
:102D9000B9F52D913C911197CD010296820F931FA9
:102DA0002091AE023091AF022817390739F63097DB
:102DB00051F51092B1021092B002B093AF02A093FD
:102DC000AE02BCCFD383C28340815181840F951F53
:102DD000C817D90761F44E5F5F4F88819981480F0A
:102DE000591F518340838A819B819383828321155C
:102DF000310509F0B0CFF093B102E093B0029ECF5D
:102E0000FD01DC01C0CF13821282D7CFB0E0A0E079
:102E1000ECE0F7E10C947E158C01009751F4CB01A6
:102E20000E94E1158C01C801CDB7DEB7E0E10C943A
:102E30009A15FC01E60FF71F9C0122503109E21799
:102E4000F30708F49DC0D901CD91DC911197C61705
:102E5000D70798F0C530D10530F3CE010497861717
:102E6000970708F3C61BD70B2297C193D1936D9395
:102E70007C93CF010E947D16D6CF5B01AC1ABD0AB0
:102E80004C018C0E9D1EA091B002B091B102512C4C
:102E9000412CF12CE12C109731F58091AE029091EC
:102EA000AF028815990509F05CC04616570608F070
:102EB00058C08091010190910201009741F48DB7B3
:102EC0009EB74091050150910601841B950BE817B0
:102ED000F90708F055C0F093AF02E093AE02F90194
:102EE00071836083A0CF8D919C91119712966C9005
:102EF000129713967C901397A815B90559F56C0194
:102F000042E0C40ED11CCA14DB0420F1AC014A1902
:102F10005B09DA011296159780F062827382518301
:102F20004083D9016D937C93E114F10471F0D701D2
:102F30001396FC93EE93129776CF22968C0F9D1FDB
:102F4000F90191838083F301EFCFF093B102E09315
:102F5000B00269CF4816590608F42C017D01D3014F
:102F60009ACFCB010E94E1157C01009749F0AE0198
:102F7000B8010E94C817C8010E947D16870153CF6F
:102F800010E000E050CF81E090E0F8940C94DF175F
:102F9000FB01DC0102C001900D9241505040D8F776
:102FA0000895DC0101C06D9341505040E0F7089551
:102FB000FB01DC0101900D920020E1F7089512E081
:102FC000C1EBD2E004C0FE010E94DB152196C23B9A
:082FD000D107C9F7F894FFCF07
:102FD800010000B202800000000000A009A509005D
:102FE800000000B303DD020A0300047B0319036D2C
:102FF80003000000002E0CDD020407DC02000000C4
:103008000000000000E8090B083F0900000000AFBD
:1030180009B60907070B087609000000001805DD46
:10302800020407170574058C05FF04303030000DC5
:023038000A008C
:107E0000112484B714BE81FFF0D085E080938100F7
:107E100082E08093C00088E18093C10086E0809377
:107E2000C20080E18093C4008EE0C9D0259A86E02C
:107E300020E33CEF91E0309385002093840096BBD3
:107E4000B09BFECF1D9AA8958150A9F7CC24DD24C4
:107E500088248394B5E0AB2EA1E19A2EF3E0BF2EE7
:107E6000A2D0813461F49FD0082FAFD0023811F036
:107E7000013811F484E001C083E08DD089C08234E0
:107E800011F484E103C0853419F485E0A6D080C0E4
:107E9000853579F488D0E82EFF2485D0082F10E0AE
:107EA000102F00270E291F29000F111F8ED06801E7
:107EB0006FC0863521F484E090D080E0DECF843638
:107EC00009F040C070D06FD0082F6DD080E0C81688
:107ED00080E7D80618F4F601B7BEE895C0E0D1E017
:107EE00062D089930C17E1F7F0E0CF16F0E7DF06D8
:107EF00018F0F601B7BEE89568D007B600FCFDCFD4
:107F0000A601A0E0B1E02C9130E011968C91119780
:107F100090E0982F8827822B932B1296FA010C0160
:107F200087BEE89511244E5F5F4FF1E0A038BF0790
:107F300051F7F601A7BEE89507B600FCFDCF97BE46
:107F4000E89526C08437B1F42ED02DD0F82E2BD052
:107F50003CD0F601EF2C8F010F5F1F4F84911BD097
:107F6000EA94F801C1F70894C11CD11CFA94CF0C13
:107F7000D11C0EC0853739F428D08EE10CD085E9AC
:107F80000AD08FE07ACF813511F488E018D01DD067
:107F900080E101D065CF982F8091C00085FFFCCF94
:107FA0009093C60008958091C00087FFFCCF809118
:107FB000C00084FD01C0A8958091C6000895E0E648
:107FC000F0E098E1908380830895EDDF803219F02E
:107FD00088E0F5DFFFCF84E1DECF1F93182FE3DFCA
:107FE0001150E9F7F2DF1F91089580E0E8DFEE27F6
:047FF000FF270994CA
:027FFE00040479
:0400000300007E007B
:00000001FF
